:020000040800F2
:10000000000008244D1B000885170008871700080A
:10001000891700088B1700088D17000800000000E2
:100020000000000000000000000000002161000846
:100030008F17000800000000C16100086B5E000817
:100040009D1B00089D1B00089D1B00089D1B0008B0
:100050009D1B00089D1B00089D1B00089D1B0008A0
:100060009D1B00089D1B00089D1B00089D1B000890
:100070009D1B00089D1B00089D1B00089D1B000880
:100080009D1B00089D1B00089D1B00089D1B000870
:100090009D1B00089D1B00089D1B00089D1B000860
:1000A0009D1B0008911700089D1B00089D1B000860
:1000B0009D1B00089D1B00089D1B00089D1B000840
:1000C0009D1B00089D1B00089D1B00089D1B000830
:1000D0009D1B00089D1B00089D1B00089D1B000820
:1000E0009D1B00089D1B0008000000009D1B0008D0
:1000F0009D1B00089D1B00089D1B00089D1B000800
:100100009D1B00089D1B00089D1B00089D1B0008EF
:100110009D1B00089D1B00089D1B00089D1B0008DF
:100120009D1B00089D1B00089D1B00089D1B0008CF
:100130009D1B00089D1B00089D1B00089D1B0008BF
:1001400000000000000000000000000000000000AF
:100150009D1B00089D1B00089D1B00089D1B00089F
:100160009D1B00089D1B00089D1B00089D1B00088F
:100170009D1B00089D1B00089D1B00089D1B00087F
:100180009D1B00089D1B00089D1B00089D1B00086F
:100190009D1B00089D1B00089D1B00089D1B00085F
:1001A0009D1B00089D1B00089D1B00089D1B00084F
:1001B0009D1B00089D1B00089D1B00089D1B00083F
:1001C0009D1B00089D1B00089D1B00089D1B00082F
:1001D0009D1B00089D1B00089D1B00089D1B00081F
:1001E0009D1B00089D1B00089D1B00089D1B00080F
:1001F0009D1B00089D1B00089D1B00089D1B0008FF
:100200009D1B00089D1B00089D1B00089D1B0008EE
:100210009D1B00089D1B00089D1B00089D1B0008DE
:100220009D1B00089D1B00089D1B0008000000008E
:100230009D1B00089D1B0008000000009D1B00087E
:100240009D1B00089D1B00089D1B00089D1B0008AE
:100250009D1B00089D1B00089D1B00089D1B00089E
:100260009D1B00089D1B00089D1B00089D1B00088E
:100270009D1B00089D1B00089D1B0008000000003E
:100280009D1B00089D1B00089D1B0008000000002E
:08029000000000009D1B0008A6
:1002C00010B5054C237833B9044B13B10448AFF390
:1002D00000800123237010BDC0090024000000002D
:1002E00048DD000808B5034B1BB103490348AFF3D1
:1002F000008008BD00000000C409002448DD00089B
:1003000081F0004102E000BF83F0004330B54FEAC6
:1003100041044FEA430594EA050F08BF90EA020F33
:100320001FBF54EA000C55EA020C7FEA645C7FEAC6
:10033000655C00F0E2804FEA5454D4EB5555B8BFE9
:100340006D420CDD2C4480EA020281EA030382EA5A
:10035000000083EA010180EA020281EA0303362DEC
:1003600088BF30BD11F0004F4FEA01314FF4801CBF
:100370004CEA113102D0404261EB410113F0004FD1
:100380004FEA03334CEA133302D0524263EB430388
:1003900094EA050F00F0A780A4F10104D5F1200E26
:1003A0000DDB02FA0EFC22FA05F2801841F1000181
:1003B00003FA0EF2801843FA05F359410EE0A5F155
:1003C00020050EF1200E012A03FA0EFC28BF4CF086
:1003D000020C43FA05F3C01851EBE37101F000453C
:1003E00007D54FF0000EDCF1000C7EEB00006EEB49
:1003F0000101B1F5801F1BD3B1F5001F0CD34908D3
:100400005FEA30004FEA3C0C04F101044FEA445229
:1004100012F5800F80F09A80BCF1004F08BF5FEAB0
:10042000500C50F1000041EB045141EA050130BD90
:100430005FEA4C0C404141EB0101013C28BFB1F5A2
:10044000801FE9D291F0000F04BF01460020B1FAED
:1004500081F308BF2033A3F10B03B3F120020CDAC0
:100460000C3208DD02F1140CC2F10C0201FA0CF09E
:1004700021FA02F10CE002F11402D8BFC2F1200C03
:1004800001FA02F120FA0CFCDCBF41EA0C019040B9
:10049000E41AA2BF01EB0451294330BD6FEA040402
:1004A0001F3C1CDA0C340EDC04F11404C4F12002ED
:1004B00020FA04F001FA02F340EA030021FA04F3FF
:1004C00045EA030130BDC4F10C04C4F1200220FA56
:1004D00002F001FA04F340EA0300294630BD21FA94
:1004E00004F0294630BD94F0000F83F4801306BF5A
:1004F00081F480110134013D4EE77FEA645C18BF4E
:100500007FEA655C29D094EA050F08BF90EA020FE4
:1005100005D054EA000C04BF1946104630BD91EADC
:10052000030F1EBF0021002030BD5FEA545C05D1DF
:100530004000494128BF41F0004130BD14F580041E
:100540003CBF01F5801130BD01F0004545F0FE4192
:1005500041F470014FF0000030BD7FEA645C1ABFC7
:10056000194610467FEA655C1CBF0B46024650EAFE
:10057000013406BF52EA033591EA030F41F400212A
:1005800030BD00BF90F0000F04BF0021704730B5B0
:100590004FF4806404F132044FF000054FF0000185
:1005A00050E700BF90F0000F04BF0021704730B546
:1005B0004FF4806404F1320410F0004548BF40421B
:1005C0004FF000013EE700BF42004FEAE2014FEA70
:1005D00031014FEA02701FBF12F07F4393F07F4F4B
:1005E00081F06051704732F07F4208BF704793F04E
:1005F0007F4F04BF41F40021704730B54FF4607461
:1006000001F0004521F000411CE700BF50EA010263
:1006100008BF704730B54FF000050AE050EA01020C
:1006200008BF704730B511F0004502D5404261EB7C
:1006300041014FF4806404F132045FEA915C3FF4BD
:10064000D8AE4FF003025FEADC0C18BF03325FEA5A
:10065000DC0C18BF033202EBDC02C2F1200300FA0B
:1006600003FC20FA02F001FA03FE40EA0E0021FA30
:1006700002F11444BDE600BF4FEA410212F5001238
:1006800015D211D56FF47873B3EB625212D94FEAD9
:10069000C12343F0004343EA505311F0004F23FAC3
:1006A00002F018BF404270474FF00000704750EA18
:1006B000013005D111F0004008BF6FF000407047D5
:1006C0004FF00000704700BF53B94AB9002908BF76
:1006D00000281CBF4FF0FF314FF0FF3000F074B91D
:1006E000ADF1080C6DE904CE00F006F8DDF804E089
:1006F000DDE9022304B070472DE9F047089D044668
:100700008E46002B4DD18A42944669D9B2FA82F2C4
:1007100052B101FA02F3C2F1200120FA01F10CFA00
:1007200002FC41EA030E94404FEA1C48210CBEFB38
:10073000F8F61FFA8CF708FB16E341EA034306FBC1
:1007400007F199420AD91CEB030306F1FF3080F050
:100750001F81994240F21C81023E63445B1AA4B29D
:10076000B3FBF8F008FB103344EA034400FB07F73F
:10077000A7420AD91CEB040400F1FF3380F00A8180
:10078000A74240F207816444023840EA0640E41B75
:1007900000261DB1D4400023C5E900433146BDE821
:1007A000F0878B4209D9002D00F0EF800026C5E9C3
:1007B000000130463146BDE8F087B3FA83F6002EDB
:1007C0004AD18B4202D3824200F2F980841A61EB53
:1007D000030301209E46002DE0D0C5E9004EDDE771
:1007E00002B9FFDEB2FA82F2002A40F09280A1EB59
:1007F0000C014FEA1C471FFA8CFE0126200CB1FBAE
:10080000F7F307FB131140EA01410EFB03F08842A6
:1008100008D91CEB010103F1FF3802D2884200F233
:10082000CB804346091AA4B2B1FBF7F007FB1011C5
:1008300044EA01440EFB00FEA64508D91CEB040463
:1008400000F1FF3102D2A64500F2BB800846A4EBBE
:100850000E0440EA03409CE7C6F12007B34022FAA9
:1008600007FC4CEA030C20FA07F401FA06F31C43D8
:10087000F9404FEA1C4900FA06F3B1FBF9F8200CE5
:100880001FFA8CFE09FB181140EA014108FB0EF02B
:10089000884202FA06F20BD91CEB010108F1FF3A7B
:1008A00080F08880884240F28580A8F10208614487
:1008B000091AA4B2B1FBF9F009FB101144EA014195
:1008C00000FB0EFE8E4508D91CEB010100F1FF3440
:1008D0006CD28E456AD90238614440EA0840A0FBD8
:1008E0000294A1EB0E01A142C846A64656D353D0AE
:1008F0005DB1B3EB080261EB0E0101FA07F722FAD2
:1009000006F3F1401F43C5E9007100263146BDE8FA
:10091000F087C2F12003D8400CFA02FC21FA03F35D
:10092000914001434FEA1C471FFA8CFEB3FBF7F0DE
:1009300007FB10360B0C43EA064300FB0EF69E4203
:1009400004FA02F408D91CEB030300F1FF382FD29C
:100950009E422DD9023863449B1B89B2B3FBF7F644
:1009600007FB163341EA034106FB0EF38B4208D91D
:100970001CEB010106F1FF3816D28B4214D9023E5E
:100980006144C91A46EA004638E72E46284605E77C
:100990000646E3E61846F8E64B45A9D2B9EB02084D
:1009A00064EB0C0E0138A3E74646EAE7204694E7DD
:1009B0004046D1E7D0467BE7023B614432E7304610
:1009C00009E76444023842E7704700BF844641EAC1
:1009D000000313F003036DD1403A41D351F8043BB7
:1009E00040F8043B51F8043B40F8043B51F8043B09
:1009F00040F8043B51F8043B40F8043B51F8043BF9
:100A000040F8043B51F8043B40F8043B51F8043BE8
:100A100040F8043B51F8043B40F8043B51F8043BD8
:100A200040F8043B51F8043B40F8043B51F8043BC8
:100A300040F8043B51F8043B40F8043B51F8043BB8
:100A400040F8043B51F8043B40F8043B51F8043BA8
:100A500040F8043B51F8043B40F8043B403ABDD217
:100A6000303211D351F8043B40F8043B51F8043BB9
:100A700040F8043B51F8043B40F8043B51F8043B78
:100A800040F8043B103AEDD20C3205D351F8043B48
:100A900040F8043B043AF9D2043208D0D2071CBF14
:100AA00011F8013B00F8013B01D30B88038060463D
:100AB000704700BF082A13D38B078DD010F00303B3
:100AC0008AD0C3F10403D21ADB071CBF11F8013B23
:100AD00000F8013B80D331F8023B20F8023B7BE772
:100AE000043AD9D3013A11F8013B00F8013BF9D29D
:100AF0000B7803704B7843708B7883706046704737
:100B000090F800F06DE9024520F007016FF0000C4D
:100B100010F0070491F820F040F049804FF00004F5
:100B20006FF00700D1E9002391F840F000F10800D0
:100B300082FA4CF2A4FA8CF283FA4CF3A2FA8CF308
:100B40004BBBD1E9022382FA4CF200F10800A4FA6F
:100B50008CF283FA4CF3A2FA8CF3E3B9D1E90423C3
:100B600082FA4CF200F10800A4FA8CF283FA4CF3FA
:100B7000A2FA8CF37BB9D1E9062301F1200182FAB4
:100B80004CF200F10800A4FA8CF283FA4CF3A2FABA
:100B90008CF3002BC6D0002A04BF04301A4612BAC8
:100BA000B2FA82F2FDE8024500EBD2007047D1E9CB
:100BB000002304F00305C4F100004FEAC50514F05A
:100BC000040F91F840F00CFA05F562EA05021CBF2B
:100BD00063EA050362464FF00004A9E70000000045
:100BE00001F0FF01102A2BDB10F0070F08D010F8DE
:100BF000013B013A8B422DD010F0070F42B3F6D1E2
:100C0000F0B441EA012141EA014122F007047FF0FA
:100C100000070023F0E80256083C85EA010586EA51
:100C2000010685FA47F5A3FA87F586FA47F6A5FA8D
:100C300087F68EB9EED1F0BC01F0FF0102F0070299
:100C400032B110F8013B013A83EA010313B1F8D144
:100C50000020704701387047002D06BF3546033825
:100C6000073815F0010F07D1013015F4807F02BF5E
:100C7000013015F4C03F0130F0BC0138704700BFAF
:100C800070B54FF0FF0C4CF4E06C1CEA11541DBF22
:100C90001CEA135594EA0C0F95EA0C0F00F0DEF8ED
:100CA0002C4481EA030621EA4C5123EA4C5350EAD2
:100CB000013518BF52EA033541F4801143F4801323
:100CC00038D0A0FB02CE4FF00005E1FB02E506F0B4
:100CD0000042E0FB03E54FF00006E1FB03569CF009
:100CE000000F18BF4EF0010EA4F1FF04B6F5007F0F
:100CF00064F5407404D25FEA4E0E6D4146EB060681
:100D000042EAC62141EA55514FEAC52040EA5E5009
:100D10004FEACE2EB4F1FD0C88BFBCF5E06F1ED8B3
:100D2000BEF1004F08BF5FEA500E50F1000041EBEA
:100D3000045170BD06F0004646EA010140EA020097
:100D400081EA0301B4EB5C04C2BFD4EB0C0541EAB9
:100D5000045170BD41F480114FF0000E013C00F3CE
:100D6000AB8014F1360FDEBF002001F0004170BDF2
:100D7000C4F10004203C35DA0C341BDC04F114040B
:100D8000C4F1200500FA05F320FA04F001FA05F297
:100D900040EA020001F0004221F0004110EBD37064
:100DA00021FA04F642EB06015EEA430E08BF20EA90
:100DB000D37070BDC4F10C04C4F1200500FA04F333
:100DC00020FA05F001FA04F240EA020001F00041C5
:100DD00010EBD37041F100015EEA430E08BF20EA38
:100DE000D37070BDC4F1200500FA05F24EEA020E80
:100DF00020FA04F301FA05F243EA020321FA04F0AF
:100E000001F0004121FA04F220EA020000EBD37065
:100E10005EEA430E08BF20EAD37070BD94F0000F65
:100E20000FD101F00046400041EB010111F4801F99
:100E300008BF013CF7D041EA060195F0000F18BF4A
:100E4000704703F00046520043EB030313F4801F86
:100E500008BF013DF7D043EA0603704794EA0C0F40
:100E60000CEA135518BF95EA0C0F0CD050EA410656
:100E700018BF52EA4306D1D181EA030101F00041D3
:100E80004FF0000070BD50EA410606BF10461946FB
:100E900052EA430619D094EA0C0F02D150EA013607
:100EA00013D195EA0C0F05D152EA03361CBF104648
:100EB00019460AD181EA030101F0004141F0FE41E7
:100EC00041F470014FF0000070BD41F0FE4141F46B
:100ED000780170BD70B54FF0FF0C4CF4E06C1CEA6B
:100EE00011541DBF1CEA135594EA0C0F95EA0C0F20
:100EF00000F0A7F8A4EB050481EA030E52EA0335DB
:100F00004FEA013100F088804FEA03334FF08055FB
:100F100045EA131343EA12634FEA022245EA111528
:100F200045EA10654FEA00260EF000419D4208BFD9
:100F3000964244F1FD0404F5407402D25B084FEA86
:100F40003202B61A65EB03055B084FEA32024FF432
:100F500080104FF4002CB6EB020E75EB030E22BF8F
:100F6000B61A754640EA0C005B084FEA3202B6EB4F
:100F7000020E75EB030E22BFB61A754640EA5C00FE
:100F80005B084FEA3202B6EB020E75EB030E22BF8E
:100F9000B61A754640EA9C005B084FEA3202B6EB8F
:100FA000020E75EB030E22BFB61A754640EADC004E
:100FB00055EA060E18D04FEA051545EA16754FEAB0
:100FC00006164FEAC30343EA52734FEAC2025FEACE
:100FD0001C1CC0D111F4801F0BD141EA00014FF05D
:100FE00000004FF0004CB6E711F4801F04BF01432E
:100FF0000020B4F1FD0C88BFBCF5E06F3FF6AFAE4A
:10100000B5EB030C04BFB6EB020C5FEA500C50F1D9
:10101000000041EB045170BD0EF0004E4EEA11315C
:1010200014EB5C04C2BFD4EB0C0541EA045170BD63
:1010300041F480114FF0000E013C90E645EA060EA7
:101040008DE60CEA135594EA0C0F08BF95EA0C0FD5
:101050003FF43BAF94EA0C0F0AD150EA01347FF41D
:1010600034AF95EA0C0F7FF425AF104619462CE7F4
:1010700095EA0C0F06D152EA03353FF4FDAE104657
:10108000194622E750EA410618BF52EA43067FF4A8
:10109000C5AE50EA41047FF40DAF52EA43057FF438
:1010A000EBAE12E74FF0FF3C06E000BF4FF0010C43
:1010B00002E000BF4FF0010C4DF804CD4FEA410CA7
:1010C0007FEA6C5C4FEA430C18BF7FEA6C5C1BD074
:1010D00001B050EA410C0CBF52EA430C91EA030FF5
:1010E00002BF90EA020F0020704710F1000F91EA52
:1010F000030F58BF994208BF90422CBFD8176FEA20
:10110000E37040F0010070474FEA410C7FEA6C5CED
:1011100002D150EA013C07D14FEA430C7FEA6C5CF4
:10112000D6D152EA033CD3D05DF8040B704700BF20
:101130008446104662468C461946634600E000BF6E
:1011400001B5FFF7B7FF002848BF10F1000F01BD40
:101150004DF808EDFFF7F4FF0CBF012000205DF80B
:1011600008FB00BF4DF808EDFFF7EAFF34BF012090
:1011700000205DF808FB00BF4DF808EDFFF7E0FF29
:1011800094BF012000205DF808FB00BF4DF808ED7A
:10119000FFF7CEFF94BF012000205DF808FB00BFE1
:1011A0004DF808EDFFF7C4FF34BF012000205DF8C3
:1011B00008FB00BF4FEA410C7FEA6C5C02D150EAA9
:1011C000013C0AD14FEA430C7FEA6C5C02D152EA3F
:1011D000033C02D14FF0000070474FF00100704710
:1011E00008B5012004F0DBFEFBE7000008B5094864
:1011F00000F0FAFE00F060FE00F052FE044600F03F
:1012000055FE02462146044806F054FD012004F034
:10121000C6FEEFE7E409002460DD000808B5074AD0
:101220000021074804F05CFE064B1860064A0021C6
:10123000064804F055FE064B186008BD8CDD00081A
:10124000E1110008DC090024B0DD0008ED11000800
:10125000E00900242DE9F0478AB0002405940694A3
:10126000079408940994484BD3F8E02042F4807224
:10127000C3F8E020D3F8E02002F480720092009AD4
:10128000D3F8E02042F00102C3F8E020D3F8E020D8
:1012900002F001020192019AD3F8E02042F0040228
:1012A000C3F8E020D3F8E02002F004020292029A90
:1012B000D3F8E02042F08002C3F8E020D3F8E02029
:1012C00002F080020392039AD3F8E02042F0020277
:1012D000C3F8E020D3F8E03003F002030493049B4A
:1012E0002A4E01228021304601F0BCFB22464FF4F9
:1012F0008071304601F0B6FBDFF8989001224FF480
:101300002071484601F0AEFBDFF88C8001224FF4DB
:101310000051404601F0A6FB802305930125069568
:1013200007950227089705A9304601F08BFA4FF47C
:10133000807ACDF814A006950794089405A9304644
:1013400001F080FACDF814A04FF40413069307942B
:1013500005A90F4801F076FA4FF42073059306951E
:101360000795089705A9484601F06CFA4FF4005319
:10137000059306950795089705A9404601F062FA7E
:101380000AB0BDE8F08700BF0044025800200258B0
:1013900000000258001C02580004025808B5124808
:1013A000124B0360124B4360002383600122C26032
:1013B000036143618361C361036201F01BFD50B9A6
:1013C0000021094801F022FF40B90021064801F040
:1013D0004BFF30B908BD00F063F8F1E700F060F8AA
:1013E000F3E700F05DF8F5E7E4090024001C00587D
:1013F000DB3FB00010B5B6B0044600213191329108
:10140000339134913591BC2202A806F001FC226888
:101410001A4B9A4201D036B010BD1023029302A895
:1014200002F072FE38BB164CD4F8E03043F0800373
:10143000C4F8E030D4F8E03003F080030093009B60
:101440004FF4C053319312233293002333933493D8
:101450000423359331A90B4801F0F4F9D4F8F430A2
:1014600043F08003C4F8F430D4F8F43003F0800380
:101470000193019BCFE700F013F8D4E7001C00585C
:1014800000440258001C025808B50268034B9A42F7
:1014900000D008BD01F068F9FBE700BF0000014083
:1014A00072B6FEE700B59DB04C22002109A806F0F7
:1014B000AFFB2022002101A806F0AAFB022001F0C8
:1014C000FFFE00230093284B9A6942F440429A6140
:1014D0009B6903F440430093244BDA6A42F0010213
:1014E000DA62DB6A03F001030093009B1E4B9B69E9
:1014F00013F4005FFAD0032309934FF480330A9367
:1015000001230C9340230D9302231293139305227E
:101510001492C022159216931793189308231993C7
:1015200000231A931B9309A801F0F4FEB8B93F23D6
:10153000019303230293002303930823049340237E
:10154000059306934FF480620792089304210DEBF4
:10155000010002F013FB20B91DB05DF804FBFFF79A
:101560009FFFFFF79DFF00BF00480258000400588E
:1015700000B5B1B0BC22002101A806F049FB4FF034
:101580000043019301A802F0BFFD10B931B05DF82E
:1015900004FBFFF785FF08B501F0B8F8FFF782FFFD
:1015A000FFF7E6FFFFF756FE00F0BEF900F0F0F996
:1015B00000F00AF8FFF7F2FE04F064FCFFF72EFEDD
:1015C00004F072FCFEE7000008B51448144B0360F9
:1015D0004FF480034360002383600722C2600361ED
:1015E00043614FF0806282614FF08052C2610362BA
:1015F00043628362C3624FF0804242638363C3638A
:10160000036443648364C36403654365836503F0D3
:101610006FFC00B908BDFFF743FFFBE7300A002469
:101620000038004010B5B6B0044600213191329127
:10163000339134913591BC2202A806F0E9FA226870
:101640001C4B9A4201D036B010BD4FF48053029328
:101650004FF48043199302A802F056FD30BB164B9D
:10166000D3F8E82042F48042C3F8E820D3F8E82019
:1016700002F480420092009AD3F8E02042F4807293
:10168000C3F8E020D3F8E03003F480730193019BAA
:101690000E23319302233293002333933493052393
:1016A000359331A9054801F0CDF8CCE7FFF7F8FEF6
:1016B000D5E700BF0038004000440258002002581F
:1016C00000B583B00A4BD3F8F42042F00202C3F80D
:1016D000F420D3F8F43003F002030193019B0022BD
:1016E0000F216FF0010001F069F803B05DF804FB11
:1016F000004402580F2801D90120704710B58AB064
:10170000044600220146192001F058F8192001F082
:101710008BF8174B1C60174BD3F8F02042F00102F6
:10172000C3F8F020D3F8F03003F001030093009BDE
:1017300001A902A802F0B2FB02F09EFB43000E4892
:10174000A0FB03239B0C013B0C480D4A026040F2B6
:10175000E732C260436000230361836003F01AFE36
:1017600010B101200AB010BD044803F077FCF9E77E
:101770000C0000240044025883DE1B43B80A0024F6
:1017800000000140FEE7FEE7FEE7FEE7FEE77047E8
:1017900008B5024803F0AEFC08BD00BFB80A00243B
:1017A0000120704708B506F009FA162303604FF0D0
:1017B000FF3008BD08B54FF0FF31FFF7F3FFFEE73C
:1017C00070B50C461646002506E0AFF300802146B2
:1017D00001F8010B01350C46B542F6DB304670BD11
:1017E00070B50C461646002504E014F8010B00F015
:1017F0009DF90135B542F8DB304670BD4FF0FF3042
:1018000070474FF400534B60002070470120704731
:101810000020704710B503460C4A0D490D4800687A
:1018200040B10C4800680344521A934206D8094A52
:10183000136010BD0748084C0460F2E706F0BEF9DB
:101840000C2303604FF0FF30F3E700BF00000824D3
:1018500000040000040B002468880024274AD2F802
:10186000883043F47003C2F88830254B1B6803F0BE
:101870000F03062B06D8224A136823F00F0343F008
:10188000070313601F4B1A6842F001021A6000221E
:101890001A6119681C4A0A401A60194B1B6813F038
:1018A000080F06D0164A136823F00F0343F007030E
:1018B0001360144B00229A61DA611A62134999622B
:1018C0001349D962134919635A639963DA63196436
:1018D0005A64196821F4802119601A660E4B1A683F
:1018E0000E4B1340B3F1005F03D20D4B0122C3F83E
:1018F00008210C4B43F2D2021A60704700ED00E061
:1019000000200052004402587FEDF6EA0002020275
:101910000000FF01800201010010005C0000FFFFD9
:10192000008000510040005208B51748174B036073
:101930004FF4E133436000238360C36003610C22F2
:1019400042618361C36103624362836204F0CAF946
:1019500070B900210C4804F03EFA60B900210A4831
:1019600004F05EFA50B9084804F016FA48B908BD08
:10197000FFF796FDEDE7FFF793FDEFE7FFF790FD2B
:10198000F1E7FFF78DFDF2E7980B0024004C0040D3
:1019900008B51748174B03604FF4E1334360002349
:1019A0008360C36003610C2242618361C36103628F
:1019B0004362836204F096F970B900210C4804F088
:1019C0000AFA60B900210A4804F02AFA50B9084816
:1019D00004F0E2F948B908BDFFF762FDEDE7FFF753
:1019E0005FFDEFE7FFF75CFDF1E7FFF759FDF2E779
:1019F000080B00240010014070B5BAB00446002165
:101A000035913691379138913991BC2206A806F06C
:101A1000FFF82368404A934204D0404A934249D099
:101A20003AB070BD0223069306A802F06DFB0028B1
:101A30003DD13B4BD3F8E82042F40022C3F8E82024
:101A4000D3F8E82002F400220192019AD3F8E020B2
:101A500042F48072C3F8E020D3F8E02002F48072F0
:101A60000292029AD3F8E02042F00102C3F8E0208B
:101A7000D3F8E03003F001030393039B4FF40073AA
:101A800035930226369600243794389408253995E4
:101A900035A9244800F0D6FE0123359336963794B5
:101AA0003894399535A9204800F0CCFEB8E7FFF707
:101AB000F7FCBEE70123069306A802F025FB38BB1E
:101AC000174BD3F8F02042F01002C3F8F020D3F8FF
:101AD000F02002F010020492049AD3F8E02042F0C1
:101AE0000102C3F8E020D3F8E03003F001030593CE
:101AF000059B4FF4C063359302233693002337933D
:101B000038930723399335A9074800F09BFE87E7F0
:101B1000FFF7C6FCD4E700BF004C004000100140B6
:101B200000440258002002580000025800B583B05B
:101B300001904FF6FF73012201A9034804F02BF82E
:101B4000019803B05DF804FB980B0024DFF834D053
:101B5000FFF784FE0C480D490D4A002302E0D458DB
:101B6000C4500433C4188C42F9D30A4A0A4C0023E7
:101B700001E013600432A242FBD306F025F8FFF720
:101B80000AFD70470000082400000024C00900245A
:101B90002CE30008C009002464880024FEE700004C
:101BA00000B587B002468DF8171001230293019308
:101BB0000DF117010091AE210548006801F078F998
:101BC00018B1002007B05DF804FB0120FAE700BF60
:101BD000081F002400B585B002460123029301933B
:101BE0000091AE210548006801F038FA18B10020D4
:101BF00005B05DF804FB0120FAE700BF081F0024D0
:101C000070B582B004460D4616460DF10701FFF788
:101C1000E1FF012802D0002002B070BD012303FAC9
:101C200005F19DF8073023EA01035BB28DF8073018
:101C300006F0010202FA05F11943C9B28DF8071046
:101C40002046FFF7ADFF0128E6D00020E4E708B505
:101C5000024607210220FFF7D3FF08BD08B5024660
:101C600006210220FFF7CCFF08BD08B500F01F01D8
:101C70000420FFF795FF012800D0002008BD08B51B
:101C800000F01F010520FFF78BFF012800D0002086
:101C900008BD08B500F01F010620FFF781FF0128ED
:101CA00000D0002008BD10B582B004460DF1070138
:101CB0000820FFF78FFF012802D0002002B010BDDE
:101CC0009DF8071001F0F8018DF8071041EA441162
:101CD000C9B28DF807100820FFF762FF0128EDD088
:101CE0000020EBE708B500F0010204210820FFF70F
:101CF00087FF08BD10B582B0102803D9202802D96B
:101D0000202000E01120C0F12000C4B20DF1070135
:101D10000820FFF75FFF012802D0002002B010BDAD
:101D20009DF8071001F0F0018DF8071004F00F0086
:101D300001438DF807100820FFF732FF0128EDD08E
:101D40000020EBE700B583B0FF238DF8073040217A
:101D50000920FFF725FF01280CD10DF1070109200B
:101D6000FFF738FF012809D19DF8073013F0400F25
:101D7000F3D100E0002003B05DF804FB0020FAE797
:101D800010B582B004460DF107010920FFF722FFCC
:101D9000012802D0002002B010BD9DF8071001F00C
:101DA000F8018DF8071004F0070001438DF80710C3
:101DB0000920FFF7F5FE0128EDD00020EBE710B574
:101DC00082B004460DF107010A20FFF703FF012846
:101DD00002D0002002B010BD9DF8071001F0FC00F9
:101DE0008DF80700610101F0600101438DF80710D3
:101DF0000A20FFF7D5FE0128ECD00020EAE710B555
:101E000082B004460DF107010A20FFF7E3FE012826
:101E100002D0002002B010BD9DF8071001F0F800BC
:101E20008DF80700A10001F01C0101438DF8071097
:101E30000A20FFF7B5FE0128ECD00020EAE710B534
:101E400082B004460DF107010A20FFF7C3FE012806
:101E500002D0002002B010BD9DF8071001F0FC0177
:101E60008DF8071004F0030001438DF807100A20D5
:101E7000FFF796FE0128EDD00020EBE708B50146FC
:101E80000C20FFF78DFE012800D0002008BD08B50A
:101E900001460D20FFF784FE012800D0002008BD78
:101EA000014B1868704700BF340C0024014B1868C0
:101EB000704700BF001F002410B584B03E4B1B7854
:101EC000032B0BD8DFE803F0021D336300233B4AEA
:101ED00013603B4A13603B4B1B780BB904B010BD39
:101EE000394B00221A60394B1A68394B1A6024208A
:101EF000FFF7C4FF2420FFF7CAFF2F4B01221A70FF
:101F0000ECE7304B1B7843B12F4B1B68B3F5FA7FDE
:101F1000E4D9294B02221A70E0E70020FFF7AEFF58
:101F20000120FFF7B4FF244B00221A70D6E7254B9F
:101F30001B7813B3264C2368264A03921F4A029249
:101F4000254A01921E4A00929BB24FF4FA7223492D
:101F5000234800F087F922686432224BA3FB021366
:101F60009B094FF4167101FB13232360164B0022CB
:101F70001A60114B03221A70B0E70020FFF77EFFB2
:101F80000120FFF784FF0C4B00221A70A6E70D4BCF
:101F90001B783BB10C4B1B68642B9FD9064B02226C
:101FA0001A709BE70020FFF769FF0120FFF76FFF22
:101FB000014B00221A7091E7041F0024340C002406
:101FC000001F002498150024300C0024280C002445
:101FD0002C0C002499150024FC1E00249C150024C0
:101FE000380C0024B5814E1B00B583B0394B186006
:101FF000FFF7A8FE012803D0002003B05DF804FB22
:102000000DF107010020FFF7E5FD012801D00020B8
:10201000F3E70020FFF729FE012801D00020ECE7BC
:102020000020FFF72CFE012801D00020E5E700206A
:10203000FFF72FFE012801D00020DEE70020FFF788
:1020400032FE012801D00020D7E70020FFF74AFE2A
:10205000012801D00020D0E71120FFF74BFE012816
:1020600001D00020C9E70320FFF78AFE012801D034
:102070000020C2E7FFF7A3FE012801D00020BCE743
:10208000FFF7BDFE012801D00020B6E70320FFF7CF
:10209000D6FE012801D00020AFE70020FFF7EEFEBA
:1020A000012801D00020A8E7FFF7F1FE012801D0A8
:1020B0000020A2E7FFF7CBFD012801D000209CE71C
:1020C000FFF7CCFD012803D1034B00221A7094E7DF
:1020D000002092E7081F0024041F0024F0B5059E8D
:1020E00000240C60012419E00EF1010E04EB0E0C2B
:1020F0009C4503DA52F82C70BD42F5D052F82C7092
:10210000BD421CDD0D680E2D1BDC6F1C0F6040F8FE
:1021100025400EF1010E744400E001345D1EA5421D
:1021200011DD52F82450B542F7DD6FF0404CA44465
:1021300052F82C70BD42F0DD4FF0010ED6E7644638
:10214000ECE76446EAE7F0BD00B58E464FF0010CBF
:102150000FE040F82320013B002B06DD6FF04042EA
:102160001A4450F822208A42F3DC40F823100CF184
:10217000010CF44503DA50F82C106346ECE75DF8E7
:1021800004FBF0B515464FF0010E13E041F8232093
:10219000013B002B0ADD6FF0404C9C4451F82C2091
:1021A00050F8246050F82270BE42EFDC41F8234022
:1021B0000EF1010EAE4503DA51F82E407346E8E702
:1021C000F0BD2DE9F04104460D4610461E460A6852
:1021D0002146FFF7D6FF4FF0FF301DE0074612E023
:1021E0002B685F1C2F6054F80E7044F82370013286
:1021F000914210DD4FEA820E54F82230B0F1FF3FD9
:10220000ECD054F82070A3EB070CB445E8DC734223
:102210006345ECDDE4E740462968814205DD00F1D5
:102220000108C5F800804246E2E72046FFF78CFF30
:10223000BDE8F081F0B583B005460C461646089F10
:102240000097FFF74BFF099B324621462846FFF7D0
:10225000B8FF23680A9A9342A8BF1346236003B0CD
:10226000F0BD00002DE9F04FBBB08046894617460F
:10227000DDF814B1DDF818A11C461A46002001460D
:102280000CE058F822603144561CBF4AA2FB06C23B
:1022900092094FF4167C0CFB12620130B842F0DB5D
:1022A000B1FBF7F100220FE058F82300401AB74EB7
:1022B00046F82200581CB44BA3FB00639B094FF463
:1022C000167606FB13030132BA42EDDB002204E06E
:1022D0009B10AE4840F822300A46B2F5F87F11DA7A
:1022E000AA4E56F82230511C56F821000344901C87
:1022F00056F820000344D01C56F820001B18E7D5E0
:102300000333E5E70023B3F5F77F0BDC591C9F4847
:1023100050F8212050F82300121A9D4840F823203D
:102320000B46F0E7002204E05B10994840F82230A9
:102330000A46B2F5F77F09DA954850F82230511C69
:1023400050F821001B18EFD50133EDE7002117E00D
:102350008F4850F82300A3EB010C8E4E36F81C601A
:1023600006FB10220133081D9842F1DA8A4B83FBE9
:102370000203D217C2EB6322854B43F821200131BF
:10238000B1F5F47F02DC0B460022ECE700210B469E
:10239000B3F5F77F08DC7E4A52F82320002AB8BF45
:1023A000524211440133F3E77C4A82FB0132CB17DE
:1023B000C3EBA2130522029208220192009340F27D
:1023C000EF13734A39A90CA8FFF734FFDDF8E4C016
:1023D000BCF1010F27DD002001239C450EDD3AAA48
:1023E00002EB830252F8B82C591E3AAE06EB81017B
:1023F00051F8B81C521A10440133EEE70CF1FF3CBF
:1024000090FBFCF007EE900AF8EEE77ADFED646AE5
:1024100086EEA77ABDEEC77A8AED007A0123479A45
:10242000137000230FE05F4BCAF800300023479A77
:102430001370F6E73AAA02EB830151F8B82C023286
:1024400041F8402C013339999942F3DC002313E021
:1024500058F824004D4A42F8230059F82400524A03
:1024600042F82300621C484CA4FB0204A4094FF468
:10247000167000FB14240133BB42E9DB0020074641
:102480008C4615E03AAE06EB870646F87C3C1646CD
:102490000133221D9A4208DB3C4A52F82320B24203
:1024A000F6DA0029EED00021ECE701B9013001375E
:1024B000BC450DDD3AAB03EB870353F8404CA31F3B
:1024C000B3F5F27FF3D2631F4FF080760121E0E78E
:1024D000012802DD002284460DE0324B449A13604D
:1024E00000238BF800304BE0033317E09B102E4C99
:1024F00044F822300A46B2F5F87F22DA234E56F825
:102500002230511C56F821402344971C56F827408E
:102510002344D41C56F824609B19E5D49B101B4E11
:1025200046F82230204850F8223050F821603344D9
:1025300050F82760334450F824401B19D6D5033394
:10254000D4E76046002306E03AAA02EB83020021AA
:1025500042F8CC1C0133042BF6DD0023834225DA3C
:102560003AAA02EB830252F87C2CB2F5FA7F01DC26
:102570000133F3E70B4B449A136000238BF80030D0
:102580003BB0BDE8F08F00BFB5814E1BCC260024C8
:102590000C1F0024E4DD0008ED9B5F7267571921D2
:1025A0000080BB4519FCFFFF9C2E0024002423461D
:1025B00058E001339F420EDD504951F823109142FB
:1025C00001DD05930A464E4951F823106145F0DDBF
:1025D0001D468C46EDE7DFF8289159F8273059F869
:1025E0002E105B1AA5EB0E0A0AFB03F393FBF8F31C
:1025F0000B4459F82510A1EB030A404951F82790E4
:1026000051F82E70A9EB0709059BA3EB0E0E0EFBEC
:1026100009FE9EFBF8F8B84451F82510A1EB080814
:1026200002FB0AF3DB1108FB0CFC4FEAEC12BCF1D5
:102630007F0FD4BF4FF0000C4FF0010C042CC8BF2B
:102640004FF0000CBCF1000F0BD053B1642101FB23
:1026500003F393FBF2F33AAA02EB840242F8CC3C78
:1026600001343346421E9A4214DD5E1C3AAA02EB44
:10267000860252F87C7C3AAA02EB830353F87CEC86
:10268000A7EB0E08B8F10A0FEBDD73464FF07F425F
:1026900094468FE7214607A8FFF756FD2246002CF7
:1026A0001ADB5210032C1BDD531E3AA901EB8303E6
:1026B00053F8CC3C01EB820252F8CC2C9B180DD481
:1026C0005B10DA1EB42A11D80E4AD35C449A136008
:1026D00001238BF8003053E7621CE2E70133EFE798
:1026E0003AAB03EB820252F8CC3CEAE7064B449A41
:1026F000136000238BF8003042E700BFCC26002493
:102700009C2E002424DE000819FCFFFF10B50320D6
:1027100000F042F801F038F90F498B69C3F3032345
:102720000E4AD35C03F01F03D8408B6903F00F03FC
:10273000D35C03F01F0320FA03F3094A1360094B2B
:1027400018600F20FEF7D6FF10B10124204610BDFF
:102750000446FEF7B5FFF9E700440258D4DD00084F
:102760000400002400000024034B1B78034A116876
:102770000B441360704700BF080000246C3600242F
:10278000014B1868704700BF6C360024014B186875
:10279000000C70470010005C0649CB6823F4E0632E
:1027A0001B041B0C000200F4E0600343024A1A43BE
:1027B000CA60704700ED00E00000FA0500B5174B55
:1027C000DB68C3F30223C3F1070CBCF1040F28BF7D
:1027D0004FF0040C03F1040EBEF1060F14D9033BB5
:1027E0004FF0FF3E0EFA0CFC21EA0C0199400EFA64
:1027F00003F322EA03031943002807DB0901C9B2E6
:10280000074B19545DF804FB0023E9E700F00F00C3
:102810000901C9B2034B1954F4E700BF00ED00E011
:1028200000E400E014ED00E0002807DB00F01F02E8
:10283000400901239340024A42F82030704700BF0C
:1028400000E100E0F0B583B000236BE085685E0036
:102850000324B44025EA0405CC68B4402C438460CA
:10286000446824EA0C0C4C68C4F300149C4044EA0D
:102870000C04446068E0DD08083550F8256003F07A
:1028800007044FEA840C0F2404FA0CF426EA040E21
:102890000C6904FA0CF444EA0E0440F825406BE09D
:1028A000092400E0002404FA0EF42C430CF1020C7D
:1028B000694D45F82C404FF0B0442568D44325EAD3
:1028C00002064F6817F4801F01D042EA05064FF058
:1028D000B0452E606D6804EA05064F6817F4001FC6
:1028E00001D042EA05064FF0B0456E60D5F884503D
:1028F00004EA05064F6817F4003F01D042EA0506D6
:102900004FF0B045C5F88460D5F880502C404E6833
:1029100016F4803F01D042EA05044FF0B042C2F8FD
:10292000804001330A6832FA03F400F092804FF0DD
:10293000010C0CFA03FC1CEA0202F2D04C6804F011
:102940000304013C012C81D94C6804F00304032CDE
:102950000CD0C4685D004FF0030C0CFA05FC24EAAF
:102960000C0C8C68AC4044EA0C04C4604C6804F065
:102970000304022C3FF47FAF04684FEA430E4FF08C
:10298000030C0CFA0EFC24EA0C0C4C6804F0030453
:1029900004FA0EF444EA0C0404604C6814F4403F5A
:1029A000BFD02E4CD4F8F45045F00205C4F8F450D2
:1029B000D4F8F44004F002040194019C4FEA930C13
:1029C0000CF10205244C54F8255003F003044FEA9F
:1029D000840E0F2404FA0EF425EA0405204CA042CC
:1029E0003FF460AF04F58064A04222D004F5806417
:1029F000A04220D004F58064A0421ED004F580647B
:102A0000A0421CD004F58064A0421AD004F5806472
:102A1000A04218D004F58064A04216D004F580646A
:102A2000A04214D004F58064A0423FF439AF0A24D8
:102A300039E7012437E7022435E7032433E7042488
:102A400031E705242FE706242DE707242BE7082488
:102A500029E703B0F0BD00BF00040058004402584D
:102A6000000002580AB18161704709048161704712
:102A700003689A6912F0020F01D000229A6203687B
:102A80009A6912F0010F03D19A6942F001029A612A
:102A9000704710B4019CC1F3090141EA0241194396
:102AA000214321F0004102685368640D04F48064FE
:102AB00044F07F7444F4583444F47F7444F00304C5
:102AC00023EA0404214351605DF8044B70472DE96B
:102AD000F041044603689F6917F010074ED00E4678
:102AE00090461022DA6100252368986910F0200FC3
:102AF0003DD1002D3BD1B6F1FF3FF5D0FFF740FEB1
:102B0000A0EB0800B04201D8002EEDD121684A6840
:102B100002F4804294F84230DBB2886910F4004F2E
:102B200004D0203B18BF012302B9C3B923689B69B5
:102B300013F0200FD8D1FFF723FEA0EB08001928CF
:102B4000F4D9636C43F020036364202384F841309C
:102B5000002384F8423084F840300125E6E74B68D2
:102B600043F480434B60FFF70BFE8046DEE7002D09
:102B700040D12022DA610427012500E000252268E7
:102B8000936913F4807F05D047F001074FF48071FB
:102B9000D161012513F4806F06D047F00807226841
:102BA0004FF48061D161012513F4007F24D047F0F8
:102BB000020723684FF40072DA6101252046FFF70F
:102BC00057FF2268536823F0FF7323F48B3323F4F9
:102BD000FF7323F001035360636C1F43676420237A
:102BE00084F84130002384F8423084F8403028468D
:102BF000BDE8F0810427C2E7002DF8D0DEE770B50C
:102C000004460D46164623689B6913F0020F1DD13A
:102C1000324629462046FFF75AFFC8B9B5F1FF3FB3
:102C2000F1D0FFF7ADFD801BA84201D8002DEAD1FD
:102C3000636C43F020036364202384F84130002355
:102C400084F8423084F84030012000E0002070BD5C
:102C50000120FCE72DE9F0410646884617461D464F
:102C60003468A46938EA04030CBF4FF0010C4FF03C
:102C7000000CBC4518D1B5F1FF3FF1D0FFF780FD46
:102C8000069BC01AA84201D8002DE9D1736C43F00D
:102C900020037364202386F84130002386F84230F5
:102CA00086F84030012000E00020BDE8F0810000FF
:102CB0002DE9F04182B0044690461D46089E099FCA
:102CC000194B00934FF08073EAB2FFF7E2FE3A46E9
:102CD00031462046FFF793FFF8B9012D0ED1236846
:102CE0005FFA88F29A6200973346002280212046DC
:102CF000FFF7B0FFA8B902B0BDE8F08123684FEA42
:102D000018229A623A4631462046FFF778FF30B9DA
:102D100023685FFA88F29A62E5E70120EBE7012079
:102D2000E9E70120E7E700BF002000802DE9F0413E
:102D300082B0044690461D46089E099F184B00939A
:102D40000023EAB2FFF7A5FE3A4631462046FFF7D8
:102D500056FFF8B9012D0ED123685FFA88F29A6206
:102D600000973346002240212046FFF773FFA8B9A1
:102D700002B0BDE8F08123684FEA18229A623A4611
:102D800031462046FFF73BFF30B923685FFA88F2EF
:102D90009A62E5E70120EBE70120E9E70120E7E798
:102DA0000020008070B505460C4616462B689B69CE
:102DB00013F0200F1AD1324621462846FFF787FE2E
:102DC000B0B9FFF7DDFC801BA04201D8002CEDD18B
:102DD0006B6C43F020036B64202385F841300023A3
:102DE00085F8423085F84030012070BD0020FCE7B6
:102DF0000120FAE7002857D010B5044690F841307A
:102E0000002B41D0242384F841302268136823F03A
:102E1000010313606368226823F070631361226802
:102E2000936823F400439360E368012B31D0A368D7
:102E3000226843F404439360E368022B2FD0226896
:102E400051681A4B0B4353602268D36823F4004344
:102E5000D360236962691343A169226843EA0123AD
:102E6000D360E369216A22680B4313602268136808
:102E700043F00103136000206064202384F8413094
:102E8000206384F8420010BD80F84030FEF7B2FAAB
:102E9000B8E7A368226843F400439360CCE7236853
:102EA0004FF400625A60CAE70120704700800002B8
:102EB0002DE9F04F83B00D46BDF834A00E9F90F879
:102EC0004110C9B2202940F0BC8004469046994682
:102ED0000C9BBAF1000F18BF002B16D090F84030B1
:102EE000012B00F0B2804FF0010B80F840B0FFF7EB
:102EF00047FC0646009019235A464FF400412046ED
:102F0000FFF7A8FE30B101209CE04FF4007343644A
:102F1000012097E0212384F84130402384F8423097
:102F2000002363640C9A6262A4F82AA0636301968A
:102F300000974B46424629462046FFF7B9FE70B936
:102F4000638D9BB2FF2B0FD9FF22228500230093B4
:102F50004FF0807329462046FFF79BFD21E00023B8
:102F600084F8403058466DE0628D92B2228500238D
:102F700000934FF00073D2B229462046FFF789FD37
:102F80000FE0628D92B22285002300934FF0007310
:102F9000D2B229462046FFF77CFD638D9BB2002B01
:102FA00033D0324639462046FFF729FE00284ED15D
:102FB000626A236812789A62636A01336362638D7E
:102FC0009BB2013B9BB26385238D013B9BB2238562
:102FD000628D92B2002AE0D0002BDED100963B46F3
:102FE000002280212046FFF735FE90BB638D9BB207
:102FF000FF2BC6D9FF222285002300934FF0807358
:1030000029462046FFF745FDC7E7324639462046A8
:10301000FFF7C8FEF8B923682022DA6121684B68FF
:1030200023F0FF7323F48B3323F4FF7323F00103A6
:103030004B6084F84120002384F8423084F840300B
:1030400000E0022003B0BDE8F08F0220FAE7012083
:10305000F8E70120F6E70120F4E700002DE9F04F42
:1030600083B00D46BDF834A00E9F90F84110C9B250
:10307000202940F0BD800446904699460C9BBAF149
:10308000000F18BF002B16D090F84030012B00F035
:10309000B3804FF0010B80F840B0FFF771FB06469C
:1030A000009019235A464FF400412046FFF7D2FD05
:1030B00030B101209DE04FF400734364012098E09B
:1030C000222384F84130402384F842300023636493
:1030D0000C9A6262A4F82AA06363019600974B469B
:1030E000424629462046FFF721FE70B9638D9BB208
:1030F000FF2B0FD9FF222285434B00934FF08073A3
:1031000029462046FFF7C5FC21E0002384F8403023
:1031100058466EE0628D92B222853B4B00934FF091
:103120000073D2B229462046FFF7B3FC0FE0628D50
:1031300092B22285002300934FF00073D2B2294649
:103140002046FFF7A6FC638D9BB2002B34D000967F
:103150003B46002204212046FFF77CFD00284DD18C
:1031600023685A6A636A1A70636A01336362228D44
:10317000013A92B22285638D9BB2013B9BB263857B
:10318000638D9BB2002BDED0002ADCD100963B463B
:1031900080212046FFF75EFD90BB638D9BB2FF2B25
:1031A000C5D9FF222285002300934FF08073294662
:1031B0002046FFF76EFCC6E7324639462046FFF749
:1031C000F1FDF8B923682022DA6121684B6823F009
:1031D000FF7323F48B3323F4FF7323F001034B605D
:1031E00084F84120002384F8423084F8403000E025
:1031F000022003B0BDE8F08F0220FAE70120F8E7D3
:103200000120F6E70120F4E70024008090F8413027
:10321000DBB2202B24D190F84030012B22D00123A7
:1032200080F84030242380F841300268136823F08E
:10323000010313600268136823F48053136002686B
:103240001368194311600268136843F001031360A7
:10325000202380F84130002380F840301846704722
:10326000022070470220704790F84130DBB2202BDB
:1032700022D190F84030012B20D0012380F840303B
:10328000242380F841300268136823F0010313609F
:103290000268136823F4706343EA01211160026835
:1032A000136843F001031360202380F841300023AA
:1032B00080F840301846704702207047022070475F
:1032C000134BDB6813F0040F07D1114BDB6803F0DD
:1032D000070383421AD00120704710B50C4AD36807
:1032E00023F007031843D060FFF74AFA0446084B5F
:1032F0005B6813F4005F07D1FFF742FA001BB0F5DB
:103300007A7FF4D9012000E0002010BD0020704732
:1033100000480258002800F0188338B504460368B6
:1033200013F0010F25D0944A136903F03803926A11
:10333000102B15D0182B0FD06368B3F5803F3FD00A
:10334000002B53D18C4B1A6822F480321A601A6811
:1033500022F480221A6038E002F00302022AEBD144
:10336000854B1B6813F4003F03D06368002B00F00B
:10337000EE82236813F0020F00F0A1807E4A1369E9
:10338000926A13F038035AD0182B55D0E368002BFB
:1033900000F0DE8078490A6822F0190213430B60BE
:1033A000FFF7EEF90546744B1B6813F0040F40F06D
:1033B000AD80FFF7E5F9401B0228F4D90320CDE2E8
:1033C0006D4A136843F48033136063682BB3FFF7CF
:1033D000D7F90546684B1B6813F4003FC9D1FFF7C6
:1033E000CFF9401B6428F5D90320B7E2B3F5A02F2D
:1033F00009D0614B1A6822F480321A601A6822F4EC
:1034000080221A60E1E75C4B1A6842F480221A605D
:103410001A6842F480321A60D7E7FFF7B1F905461F
:10342000554B1B6813F4003FA3D0FFF7A9F9401BCD
:103430006428F5D9032091E212F0030FA6D14E4B78
:103440001B6813F0040F03D0E368002B00F08182A7
:10345000494A136823F01903E1680B431360FFF72F
:103460008FF90546444B1B6813F0040F06D1FFF794
:1034700087F9401B0228F5D903206FE2FFF786F990
:1034800041F20303984212D82269402A07D03A49F0
:103490004B6823F47C3343EA02334B600FE0364A37
:1034A000536823F47C3343F40033536007E0324A1B
:1034B000536823F0FE43216943EA016353602368A4
:1034C00013F0100F00F088802B4A136903F03803C3
:1034D000926A082B56D0182B50D0E369002B00F0CD
:1034E000B880254A136843F080031360FFF748F95A
:1034F0000546214B1B6813F4807F40F08880FFF75E
:103500003FF9401B0228F4D9032027E2FFF73EF9D8
:1035100041F20303984212D82269402A07D0164983
:103520004B6823F47C3343EA02334B60C7E7124A0B
:10353000536823F47C3343F400335360BFE70E4AEF
:10354000536823F0FE43216943EA01635360B6E701
:10355000094A136823F001031360FFF711F90546C8
:10356000054B1B6813F0040FA9D0FFF709F9401BA6
:103570000228F5D90320F1E10044025802F00302C9
:10358000012AAAD1A14B1B6813F4807F03D0E36901
:10359000802B40F0E081FFF7F9F841F203039842F5
:1035A00012D8226A202A07D098494B6823F0F843A2
:1035B00043EA82634B600FE0944A536823F0F84378
:1035C00043F08043536007E0904AD36823F07C5374
:1035D000216A43EA0163D360236813F0080F60D0C7
:1035E0006369002B49D0894A536F43F00103536745
:1035F000FFF7C6F80546854B5B6F13F0020F50D1FD
:10360000FFF7BEF8401B0228F5D90320A6E1FFF71B
:10361000BDF841F20303984212D8226A202A07D04B
:103620007A494B6823F0F84343EA82634B60D3E75F
:10363000764A536823F0F84343F080435360CBE766
:10364000724AD36823F07C53216A43EA0163D36052
:10365000C2E76E4A136823F080031360FFF790F807
:1036600005466A4B1B6813F4807FB5D0FFF788F8D6
:10367000401B0228F5D9032070E1644A536F23F000
:1036800001035367FFF77CF80546604B5B6F13F04F
:10369000020F06D0FFF774F8401B0228F5D903206B
:1036A0005CE1236813F0200F29D0A3699BB1574A2E
:1036B000136843F480531360FFF762F80546534BD9
:1036C0001B6813F4005F1AD1FFF75AF8401B022859
:1036D000F5D9032042E14D4A136823F48053136067
:1036E000FFF74EF80546494B1B6813F4005F06D000
:1036F000FFF746F8401B0228F5D903202EE1236886
:1037000013F0040F21D1636A002B00F026813F4A99
:10371000126902F03802182A00F0EE80022B79D0EC
:103720003A4A136823F080731360FFF729F80446C0
:10373000364B1B6813F0007F00F0DC80FFF720F8A9
:10374000001B0228F4D9032008E1314A136843F42E
:1037500080731360FFF714F805462D4B1B6813F4B4
:10376000807F06D1FFF70CF8401B6428F5D90320B1
:10377000F4E0A368012B0AD00BBB244B1A6F22F094
:1037800001021A671A6F22F004021A6704E01F4A46
:10379000136F43F001031367A36833B3FEF7F0FF21
:1037A00005461A4B1B6F13F0020FACD1FEF7E8FF72
:1037B000401B41F288339842F3D90320CEE0052B19
:1037C00009D0124B1A6F22F001021A671A6F22F009
:1037D00004021A67E0E70D4B1A6F42F004021A6701
:1037E0001A6F42F001021A67D6E7FEF7C9FF0546D5
:1037F000064B1B6F13F0020F85D0FEF7C1FF401B75
:1038000041F288339842F3D90320A7E000440258DC
:1038100000480258594A136823F080731360FEF77A
:10382000AFFF0546554B1B6813F0007F06D0FEF72F
:10383000A7FF401B0228F5D903208FE04F4B996A60
:103840004F4A0A40A16AE06A41EA00110A439A62BB
:10385000226B013AC2F30802616B0139490289B255
:103860000A43A16B0139090401F4FE010A43E16B2B
:103870000139090601F0FE410A431A63DA6A22F0AF
:103880000102DA62596B3F4A0A40A16C42EAC10266
:103890005A63DA6A22F00C02216C0A43DA62DA6AAD
:1038A00022F00202616C0A43DA62DA6A42F4803280
:1038B000DA62DA6A42F40032DA62DA6A42F48022C8
:1038C000DA62DA6A42F00102DA621A6842F0807261
:1038D0001A60FEF755FF0446284B1B6813F0007F63
:1038E00006D1FEF74DFF001B0228F5D9032035E075
:1038F000002033E0002031E0204A916A106B012B58
:103900002DD001F00303A26A93422AD1C1F305111D
:10391000E36A994227D1C0F30802236B013B9A4224
:1039200023D1C0F34622636B013B9A421FD1C0F3FF
:103930000642A36B013B9A421BD1C0F30660E36BC6
:10394000013B984217D1002008E001207047012078
:1039500004E0012002E0012000E0002038BD012049
:10396000FCE70120FAE70120F8E70120F6E7012053
:10397000F4E70120F2E70120F0E700BF004402581D
:103980000CFCFFFF0700FFFF744B1B6903F03803BB
:10399000102B00F0DE80182B10D00BB17048704750
:1039A0006E4B1B6813F0200F00F0D5806B4B18682E
:1039B000C0F3C1006B4B23FA00F0704710B4674AA4
:1039C000916A01F00301946AC4F30510D36A03F00D
:1039D000010C536BC3F3CC030CFB03F307EE903ADB
:1039E000F8EE677A14F47C7F00F09380012965D0AB
:1039F000022900F09180E1B107EE100AF8EE476A63
:103A00009FED596A86EE267A544B1B6BC3F308036D
:103A100006EE903AF8EE666A9FED546A67EE867A93
:103A200076EEA77AF7EE006A77EEA67A27EE277A87
:103A300060E0136813F0200F23D011461268C2F320
:103A4000C102484BD34007EE103AF8EE476A07EE42
:103A5000100AB8EE476A86EE867A0B6BC3F308034A
:103A600006EE903AF8EE666A9FED406A67EE867A57
:103A700076EEA77AF7EE006A77EEA67A27EE277A37
:103A800038E007EE100AF8EE476A9FED396A86EED5
:103A9000267A324B1B6BC3F3080306EE903AF8EE1E
:103AA000666A9FED326A67EE867A76EEA77AF7EE5F
:103AB000006A77EEA67A27EE277A1BE007EE100A57
:103AC000F8EE476A9FED286A86EE267A234B1B6B39
:103AD000C3F3080306EE903AF8EE666A9FED236A98
:103AE00067EE867A76EEA77AF7EE006A77EEA67A28
:103AF00027EE277A194B1B6BC3F34623013307EEDE
:103B0000903AF8EE677AC7EE276AFCEEE67A17EE8F
:103B1000900A5DF8044B704707EE100AF8EE476A0A
:103B20009FED146A86EE267A0C4B1B6BC3F30803D9
:103B300006EE903AF8EE666A9FED0C6A67EE867ABA
:103B400076EEA77AF7EE006A77EEA67A27EE277A66
:103B5000D0E7094870470348704700BF0044025847
:103B600000093D000090D0030024744A0000003991
:103B70000024744C20BCBE4B40787D01002800F02E
:103B8000328170B50D4604469B4B1B6803F00F0352
:103B90008B420BD2984A136823F00F030B43136038
:103BA000136803F00F038B4240F01F81236813F06A
:103BB000040F0CD02269914B9B6903F070039A4269
:103BC00005D98E498B6923F070031A438A612368F3
:103BD00013F0080F0CD06269884BDB6903F07003A7
:103BE0009A4205D98549CB6923F070031A43CA610B
:103BF000236813F0100F0CD0A269804BDB6903F42B
:103C0000E0639A4205D97D49CB6923F4E0631A4306
:103C1000CA61236813F0200F0CD0E269774B1B6A4E
:103C200003F070039A4205D974490B6A23F07003BC
:103C30001A430A62236813F0020F0CD0E2686F4B3C
:103C40009B6903F00F039A4205D96C498B6923F0F5
:103C50000F031A438A61236813F0010F41D0674AAA
:103C6000936923F47063A1680B4393616368022B2B
:103C70000AD0032B27D0012B2CD0604A126812F0F7
:103C8000040F06D10120ADE0126812F4003F00F0ED
:103C9000AE805A490A6922F0070213430B61FEF70E
:103CA0006FFD0646554B1B6903F038036268B3EBA2
:103CB000C20F16D0FEF764FD801B41F28833984294
:103CC000F0D903208EE04D4A126812F0007FE0D157
:103CD000012087E0494A126812F4807FD9D101207F
:103CE00080E0236813F0020F0CD0E268434B9B691D
:103CF00003F00F039A4205D240498B6923F00F036A
:103D00001A438A613C4B1B6803F00F03AB420AD98C
:103D1000394A136823F00F032B431360136803F031
:103D20000F03AB4265D1236813F0040F0CD0226956
:103D3000324B9B6903F070039A4205D22F498B697D
:103D400023F070031A438A61236813F0080F0CD024
:103D500062692A4BDB6903F070039A4205D2274956
:103D6000CB6923F070031A43CA61236813F0100F64
:103D70000CD0A269214BDB6903F4E0639A4205D2BF
:103D80001E49CB6923F4E0631A43CA61236813F028
:103D9000200F0CD0E269194B1B6A03F070039A42A2
:103DA00005D216490B6A23F070031A430A62FFF723
:103DB000EBFD12498B69C3F30323114AD35C03F073
:103DC0001F03D8408B6903F00F03D35C03F01F037C
:103DD00020FA03F30B4A13600B4B18600B4B186867
:103DE000FDF788FC70BD012070470120FAE7012033
:103DF000F8E70120F6E700BF002000520044025817
:103E0000D4DD000804000024000000240C0000247D
:103E100008B5FFF7B9FD0B4A9369C3F303230A49B9
:103E2000CB5C03F01F0320FA03F3926902F00F0248
:103E3000885C00F01F0023FA00F0044A1060044A76
:103E4000136008BD00440258D4DD000804000024BB
:103E50000000002408B5FFF7DBFF054BDB69C3F367
:103E60000213044AD35C03F01F03D84008BD00BF0F
:103E700000440258D4DD000808B5FFF7C9FF054B20
:103E8000DB69C3F30223044AD35C03F01F03D84069
:103E900008BD00BF00440258D4DD00083F23036082
:103EA000114B1A6902F0070242609A6902F47062CB
:103EB00082609A6902F00F02C2609A6902F0700291
:103EC0000261DA6902F070024261DA6902F4E062CA
:103ED00082611B6A03F07003C361044B1B6803F02B
:103EE0000F030B60704700BF0044025800200052CF
:103EF000404B9B6A03F00303032B79D070B5054652
:103F00000E463C4A136823F080631360FEF738FCCA
:103F10000446384B1B6813F0006F06D0FEF730FCE8
:103F2000031B022BF5D9032070BD324B9A6A22F491
:103F30007C32296842EA01329A626A68013AC2F325
:103F40000802A9680139490289B20A43E9680139BE
:103F5000090401F4FE010A4329690139090601F047
:103F6000FE410A439A63DA6A22F0C00269690A4391
:103F7000DA62DA6A22F02002A9690A43DA62DA6AAE
:103F800022F01002DA62D96B1B4A0A40E96942EA60
:103F9000C102DA63DA6A42F01002DA62C6B91A467E
:103FA000DB6A43F40023D362124A136843F0806350
:103FB0001360FEF7E5FB04460E4B1B6813F0006F21
:103FC00014D1FEF7DDFB001B0228F5D90320ABE777
:103FD000012E05D0074AD36A43F40013D362E3E706
:103FE000044AD36A43F48013D362DDE700209BE7E1
:103FF00001207047004402580700FFFF404B9B6AB6
:1040000003F00303032B79D070B505460E463C4AF6
:10401000136823F080531360FEF7B2FB0446384B5D
:104020001B6813F0005F06D0FEF7AAFB031B022BF0
:10403000F5D9032070BD324B9A6A22F07C72296850
:1040400042EA01529A626A68013AC2F30802A96818
:104050000139490289B20A43E9680139090401F4C6
:10406000FE010A4329690139090601F0FE410A43AC
:104070001A64DA6A22F4406269690A43DA62DA6A27
:1040800022F40072A9690A43DA62DA6A22F48072C1
:10409000DA62596C1B4A0A40E96942EAC1025A6471
:1040A000DA6A42F48072DA62C6B91A46DB6A43F40D
:1040B0008003D362124A136843F080531360FEF703
:1040C0005FFB04460E4B1B6813F0005F14D1FEF734
:1040D00057FB001B0228F5D90320ABE7012E05D0C2
:1040E000074AD36A43F08073D362E3E7044AD36A92
:1040F00043F40003D362DDE700209BE70120704713
:10410000004402580700FFFFF8B50446036813F0A7
:10411000006F30D0436EB3F5001F26D00ED8EBB140
:10412000B3F5801F07D102210430FFF7E1FE0546F9
:1041300045B12E4621E0012635461EE0B3F5401F6D
:1041400009D10025954A136D23F44013616E0B438A
:104150001365002611E0012635460EE08F4AD36A2A
:1041600043F40033D3620025ECE702212430FFF74B
:1041700045FF0546DCE700263546236813F4807FBB
:1041800014D0636D042B30D8DFE803F00322280835
:104190000800824AD36A43F40033D36245BB7F4AA6
:1041A000136D23F00703616D0B431365236813F44C
:1041B000007F2FD0A36D802B49D01ED8002B40D07C
:1041C000402B17D10021201DFFF792FE054619E074
:1041D0000021201DFFF78CFE0546DFE7002104F1DA
:1041E0002400FFF70BFF0546D8E701263546DDE73B
:1041F0002E46DBE7012635460CE0C02B02D0B3F596
:10420000807F1BD155BB654A136D23F4E073A16D0C
:104210000B431365236813F4806F45D0D4F8A430A2
:10422000B3F5800F38D01ED883B3B3F5001F17D174
:104230000021201DFFF75CFE05461AE001263546E9
:10424000E8E7564AD36A43F40033D362DAE7002141
:1042500004F12400FFF7D2FE0546D3E72E46D9E746
:104260000126354620E0B3F5C00F02D0B3F5000FAC
:1042700009D1C5B9494A936D23F46003D4F8A41059
:104280000B43936510E0012635460DE0434AD36A9F
:1042900043F40033D362ECE7002104F12400FFF77C
:1042A000ADFE0546E5E72E46236813F4006F23D0E4
:1042B000D4F8A830B3F1007F41D00DD8002B38D00E
:1042C000B3F1807F05D10021201DFFF711FE0546C7
:1042D00008E0012635460FE0B3F1407F02D0B3F18C
:1042E000806F23D1002D31D12C4A936D23F0E063F0
:1042F000D4F8A8100B439365236813F0007F2ED0E9
:10430000A36C202B3FD026D833B1102B20D1234AC9
:10431000D36A43F40033D362002D3AD11F4AD36CE1
:1043200023F03003A16C0B43D36418E0012635461B
:10433000E2E71A4AD36A43F40033D362D2E700219A
:1043400004F12400FFF75AFE0546CBE72E46D3E7DB
:104350000126354603E0302BDED0012635462368A2
:1043600013F4805F2BD0E36DB3F5005F4CD017D80A
:10437000002B43D0B3F5805F0DD10021201DFFF746
:10438000B7FD054612E00221201DFFF7B1FD0546ED
:10439000C2E72E46E3E70126354610E00044025806
:1043A000B3F5405F02D0B3F5804F24D1002D32D158
:1043B000754A136D23F4E043E16D0B4313652368E5
:1043C00013F4005F37D0236EB3F5003F51D027D8E8
:1043D0003BB1B3F5803F20D10121201DFFF788FDBF
:1043E0000546002D4CD1684A136D23F4E023216E5D
:1043F0000B4313651FE001263546E0E7624AD36AA6
:1044000043F40033D362D1E7002104F12400FFF725
:10441000F5FD0546CAE72E46D1E7012635460AE0F6
:10442000B3F5802FDDD0B3F5A02FDAD0B3F5403F40
:10443000D7D001263546236813F4804F30D0D4F806
:10444000AC30B3F1005F44D01FD83BB1B3F1805F13
:1044500018D10121201DFFF74BFD0546002D3FD14E
:10446000494A936D23F0E043D4F8AC100B439365B5
:1044700016E0012104F12400FFF7C0FD0546B0E776
:104480002E46D8E7012635460AE0B3F1804FE5D045
:10449000B3F1A04FE2D0B3F1405FDFD00126354643
:1044A000236813F4004F09D0E36EB3F1805F19D095
:1044B000B3F1005F24D0D3B101263546236813F051
:1044C000807F32D0636C032B59D8DFE803F02621BC
:1044D0005226012104F12400FFF790FD0546BDE7B7
:1044E0002E46DDE7284AD36A43F40033D3626DB920
:1044F000254A136D23F04053E16E0B431365DDE74E
:104500000121201DFFF7F4FC0546F0E72E46D5E714
:104510001D4AD36A43F40033D3629DBB1A4AD36C5D
:1045200023F00303616C0B43D364236813F4800FFF
:104530002CD1236813F0010F00F0A380A36F282B68
:1045400000F29D80DFE803F08B9B9B9B9B9B9B9BDA
:10455000869B9B9B9B9B9B9B949B9B9B9B9B9B9BC7
:104560008B9B9B9B9B9B9B9B8B9B9B9B9B9B9B9BBB
:104570008B000221201DFFF7BBFC0546CDE701267D
:104580003546D2E72E46D0E7004402588F4A1368DA
:1045900043F480731360FEF7F3F807468B4B1B68F8
:1045A00013F4807F05D1FEF7EBF8C01B6428F5D922
:1045B0000325002D4AD1864B1B6FD4F8B020534001
:1045C00013F4407F0CD0824B1A6F22F44072196FA3
:1045D00041F480311967196F21F4803119671A6726
:1045E000D4F8B030B3F5807F15D08DBBD4F8B0309F
:1045F00003F44072B2F5407F1ED0754A136923F46C
:104600007C53136172490B6FD4F8B020C2F30B02D4
:1046100013430B678DE7FEF7B3F807466C4B1B6F30
:1046200013F0020FE1D1FEF7ABF8C01B41F2883363
:104630009842F3D90325D8E76548026922F47C52F1
:10464000644901EA131313430361DBE72E4670E765
:104650002E466EE70121201DFFF74AFC0546E5B90D
:104660005B4A536D23F03803A16F0B43536508E099
:10467000012104F12400FFF7C1FC0546EFE7012604
:104680003546236813F0020F16D0636F052B27D829
:10469000DFE803F00A051F0A0A0A2E46F1E70121A6
:1046A000201DFFF725FC0546EDB9494A536D23F05F
:1046B0000703616F0B435365236813F0040F22D087
:1046C000D4F89030052B43D8DFE803F0140F3B14E7
:1046D0001414012104F12400FFF790FC0546E3E7E0
:1046E00001263546E8E72E46E6E70121201DFFF7C3
:1046F000FFFB05467DBB364A936D23F00703D4F8D4
:1047000090100B439365236813F0200F33D0D4F837
:104710008C30B3F1005F4CD022D83BB1B3F1805F55
:104720001BD10021201DFFF7E3FB0546002D47D1DB
:10473000274A536D23F0E043D4F88C100B435365A4
:1047400019E0012104F12400FFF758FC0546D1E7E8
:1047500001263546D7E72E46D5E7012635460AE03D
:10476000B3F1804FE2D0B3F1A04FDFD0B3F1405F9F
:10477000DCD001263546236813F0400F37D0D4F83B
:104780009830B3F5006F52D026D83BB1B3F5806FA7
:1047900018D10021201DFFF7ABFB0546002D4DD1A0
:1047A0000B4A936D23F4E053D4F898100B439365B0
:1047B0001DE0022104F12400FFF720FC0546B5E7C7
:1047C0002E46D8E70126354611E000BF00480258C2
:1047D00000440258CFFFFF00B3F5805FDED0B3F591
:1047E000A05FDBD0B3F5406FD8D0012635462368F3
:1047F00013F0800F32D0D4F89C30B3F5804F00F026
:104800009D8020D83BB1B3F5005F19D10021201D58
:10481000FFF76EFB0546002D40F09780A54A936D8B
:1048200023F46043D4F89C100B43936516E00221F7
:1048300004F12400FFF7E2FB0546AFE72E46D6E77A
:10484000012635460AE0B3F5004FE4D0B3F5204F1A
:10485000E1D0B3F5C04FDED001263546236813F012
:10486000080F0CD0D4F88030B3F5805F6FD0914A38
:10487000536D23F44053D4F880100B4353652368E1
:1048800013F0100F0CD0D4F89430B3F5807F67D0BC
:10489000884A936D23F44073D4F894100B439365C6
:1048A000236813F4002F0BD0D4F8A030B3F5803F69
:1048B0006ED0B3F5003F61D0002B5AD001263546AB
:1048C000236813F4802F0CD0D4F88430B3F5001F84
:1048D00076D0B3F5401F69D0B3F5801F61D00126B3
:1048E0003546236813F4803F07D0E36C002B70D06B
:1048F000B3F5803F7BD001263546236813F0005F77
:104900007DD1236813F4003F00F08680E36FB3F598
:10491000807F00F0C6807CD9B3F5007F03D0B3F56B
:10492000407F40F0BC80002D40F0C180614A536D53
:1049300023F44073E16F0B4353656DE0022104F1F2
:104940002400FFF75BFB054665E72E4686E702215C
:1049500004F12400FFF752FB002888D0012686E7E7
:10496000022104F12400FFF749FB002890D0012622
:104970008EE70021201DFFF7BBFA05467DB94D4AA1
:10498000936D23F44033D4F8A0100B43936597E75D
:10499000022104F12400FFF731FB0546EEE72E4625
:1049A0008EE7444AD36A43F40033D3627DB9414A67
:1049B000536D23F44013D4F884100B43536590E7F0
:1049C000012104F12400FFF719FB0546EEE72E460E
:1049D00087E7384AD36A43F40033D3626DB9354A66
:1049E000D36C23F48033E16C0B43D36485E702215D
:1049F000201DFFF77DFA0546F0E72E467DE70221F0
:104A000004F12400FFF7FAFA00283FF47AAF0126F8
:104A100077E7002B87D00126236813F4801F06D088
:104A2000244A136D23F00043216F0B431365236861
:104A300013F0805F07D01F4A136923F48043D4F832
:104A4000B4100B431361236813F4001F06D0194AF6
:104A5000136D23F08073A16E0B431365236813F06D
:104A6000804F09D0134B1A6922F400421A611A6967
:104A7000D4F8B8100A431A612368002B1CDB2368A2
:104A800013F4000F07D00B4A536D23F44003D4F8FE
:104A900088100B43536506B101263046F8BD012648
:104AA000BAE7044AD36A43F40033D3623BE72E46A5
:104AB000B2E700BF00440258034AD36C23F04053CE
:104AC000216D0B43D364DAE70044025808B5FFF7C1
:104AD0009FF9054B1B6AC3F30213044AD35C03F02E
:104AE0001F03D84008BD00BF00440258D4DD0008B1
:104AF00010B5774A916A946AC4F3053ED36AC3F34A
:104B0000001CD36BC3F3CC030CFB03F314F47C3F06
:104B100000F0D88001F0030107EE903AF8EE677AD2
:104B2000012965D0022900F0B080E1B107EE10EA5A
:104B3000B8EE477A9FED676AC6EE076A644B9B6BD7
:104B4000C3F3080307EE103AB8EE477A9FED626AA6
:104B500067EE867A77EE277AB7EE007A77EE877A75
:104B600066EEA76A60E0136813F0200F23D01146A9
:104B70001268C2F3C102594BD34007EE103AB8EEA7
:104B8000477A06EE90EAB8EE666AC7EE066A8B6B65
:104B9000C3F3080307EE103AB8EE477A9FED4E6A6A
:104BA00067EE867A77EE277AB7EE007A77EE877A25
:104BB00066EEA76A38E007EE10EAB8EE477A9FED96
:104BC000486AC6EE076A424B9B6BC3F3080307EEC5
:104BD000103AB8EE477A9FED406A67EE867A77EE34
:104BE000277AB7EE007A77EE877A66EEA76A1BE03F
:104BF00007EE10EAB8EE477A9FED366AC6EE076A0E
:104C0000334B9B6BC3F3080307EE103AB8EE477AB9
:104C10009FED316A67EE867A77EE277AB7EE007AF3
:104C200077EE877A66EEA76A294A936BC3F3462329
:104C300007EE103AB8EE477AB7EE006A37EE067A1A
:104C4000C6EE877AFCEEE77AC0ED007A936BC3F389
:104C5000064307EE103AB8EE477A37EE067AC6EE0C
:104C6000877AFCEEE77AC0ED017A936BC3F30663B3
:104C700007EE903AF8EE677A77EE867A86EEA77AB4
:104C8000BCEEC77A80ED027A10BD07EE10EAB8EEEE
:104C9000477A9FED146AC6EE076A0D4B9B6BC3F310
:104CA000080307EE103AB8EE477A9FED0B6A67EEFD
:104CB000867A77EE277AB7EE007A77EE877A66EE15
:104CC000A76AB1E70023036043608360DCE700BFAD
:104CD000004402580024744A000000390090D003B8
:104CE0000024744C20BCBE4B10B5774A916A946A7C
:104CF000C4F3055ED36AC3F3002C536CC3F3CC0337
:104D00000CFB03F314F07C7F00F0D88001F003016A
:104D100007EE903AF8EE677A012965D0022900F093
:104D2000B080E1B107EE10EAB8EE477A9FED676A0E
:104D3000C6EE076A644B1B6CC3F3080307EE103A18
:104D4000B8EE477A9FED626A67EE867A77EE277A49
:104D5000B7EE007A77EE877A66EEA76A60E01368AE
:104D600013F0200F23D011461268C2F3C102594B31
:104D7000D34007EE103AB8EE477A06EE90EAB8EE66
:104D8000666AC7EE066A0B6CC3F3080307EE103AB7
:104D9000B8EE477A9FED4E6A67EE867A77EE277A0D
:104DA000B7EE007A77EE877A66EEA76A38E007EE0C
:104DB00010EAB8EE477A9FED486AC6EE076A424BA2
:104DC0001B6CC3F3080307EE103AB8EE477A9FED69
:104DD000406A67EE867A77EE277AB7EE007A77EE4A
:104DE000877A66EEA76A1BE007EE10EAB8EE477A0C
:104DF0009FED366AC6EE076A334B1B6CC3F308039C
:104E000007EE103AB8EE477A9FED316A67EE867A80
:104E100077EE277AB7EE007A77EE877A66EEA76AA2
:104E2000294A136CC3F3462307EE103AB8EE477ACB
:104E3000B7EE006A37EE067AC6EE877AFCEEE77ABE
:104E4000C0ED007A136CC3F3064307EE103AB8EED8
:104E5000477A37EE067AC6EE877AFCEEE77AC0ED3F
:104E6000017A136CC3F3066307EE903AF8EE677AA3
:104E700077EE867A86EEA77ABCEEC77A80ED027A64
:104E800010BD07EE10EAB8EE477A9FED146AC6EE41
:104E9000076A0D4B1B6CC3F3080307EE103AB8EE1C
:104EA000477A9FED0B6A67EE867A77EE277AB7EE40
:104EB000007A77EE877A66EEA76AB1E7002303608F
:104EC00043608360DCE700BF004402580024744A5A
:104ED000000000390090D0030024744C20BCBE4B6D
:104EE000C36B5B09C0680830C00803FB0000704753
:104EF000002800F0A38070B5044600238362056893
:104F0000524B534E9D4218BFB54214BF0126002696
:104F100007D0A3F574439D4203D0C3680F2B00F262
:104F20008F802046FFF7DCFF2EB14A4B9D4202D016
:104F3000082800F28780454A454B9D4218BF95429C
:104F400003D003F580639D4201D110287CD894F8EA
:104F50008130002B59D0022384F8813022681368F5
:104F600023F00103136021688A6802F4F812A36930
:104F7000B3F1806F4FD0E369A16A0B431343E26B37
:104F80001343E16822680B439360636B626A1343C7
:104F9000A26B1343A269134322691343626913434B
:104FA000226A134362681343E26C1343A2681343FB
:104FB000A26C1343A16D22680B43D36063686BB985
:104FC0002268936823F4C05343F40063936022681B
:104FD000936823F4C06343F4806393602268136D85
:104FE00023F001031365636813F4800F06D0226871
:104FF000D36823F00043616D0B43D3600020C4F8F5
:105000008400012384F8813070BD84F8803020460C
:10501000FCF708FB9FE76368B3F5800F06D0002B11
:10502000A9D1A36BB3F1805FA5D102E0A06B0028EA
:10503000F5D10B6843F480530B609CE70120704767
:105040000120E1E70120DFE70120DDE7003001403A
:1050500000380040003C00407047000090F83D30B0
:10506000DBB2012B3AD1022380F83D300268D368CD
:1050700043F00103D36003681A4AB3F1804F18BFAD
:1050800093421DD0A2F57C42934219D002F5806272
:10509000934215D002F58062934211D002F5784216
:1050A00093420DD0A2F56C42934209D002F594329E
:1050B000934205D01A6842F001021A60002070473E
:1050C0009968094A0A40062A18BFB2F5803F07D0FE
:1050D0001A6842F001021A600020704701207047F0
:1050E0000020704700000140070001007047704732
:1050F0007047704710B5044603681A6912F0020F32
:1051000011D0DA6812F0020F0DD06FF002021A61AE
:105110000123037703689B6913F0030F79D0FFF72E
:10512000E6FF0023237723681A6912F0040F12D0D8
:10513000DA6812F0040F0ED06FF004021A61022335
:10514000237723689B6913F4407F68D02046FFF7DC
:10515000CEFF0023237723681A6912F0080F12D0BC
:10516000DA6812F0080F0ED06FF008021A610423FB
:1051700023772368DB6913F0030F57D02046FFF72E
:10518000B6FF0023237723681A6912F0100F12D09C
:10519000DA6812F0100F0ED06FF010021A610823B7
:1051A00023772368DB6913F4407F46D02046FFF75E
:1051B0009EFF0023237723681A6912F0010F03D0A2
:1051C000DA6812F0010F3FD123681A6912F0800FDC
:1051D00003D0DA6812F0800F3DD123681A6912F407
:1051E000807F03D0DA6812F0800F3BD123681A6900
:1051F00012F0400F03D0DA6812F0400F39D1236863
:105200001A6912F0200F03D0DA6812F0200F37D19C
:1052100010BDFFF76BFF2046FFF76AFF81E72046CE
:10522000FFF764FF2046FFF763FF92E72046FFF792
:105230005DFF2046FFF75CFFA3E72046FFF756FF20
:105240002046FFF755FFB4E76FF001021A612046D0
:10525000FCF71AF9B8E76FF080021A61204600F0F7
:10526000CAF8BAE76FF480721A61204600F0C4F8F9
:10527000BCE76FF040021A612046FFF73AFFBEE735
:105280006FF020021A61204600F0B4F8C0E7000079
:1052900030B50368394A904214BF4FF0000E4FF00A
:1052A000010EB0F1804F14BF72464EF00102AAB950
:1052B000334CA04214BF00240124324DA8420DD02B
:1052C00064B904F1804404F58234A04214BF002480
:1052D000012405F50065A84200D01CB123F070033D
:1052E0004C68234312BB264A904214BF002201227D
:1052F000244CA0421AD0CAB902F1804202F582328F
:10530000904214BF0022012204F50064A0420DD097
:1053100062B91D4A904214BF0022012204F59A345A
:10532000A04203D012B9194A904204D123F4407C20
:10533000CB6843EA0C0323F080034A6913430360FC
:105340008A68C2620A688262114A904214BF734638
:105350004EF0010363B90C4B984214BF00230123A4
:1053600002F57052904203D013B9084B984201D114
:105370000B6903630123436130BD00BF000001409E
:105380000008004000040040004401400048014083
:105390000004014060B310B5044690F83D3013B3EB
:1053A000022384F83D30214651F8040BFFF770FFCB
:1053B000012384F8483084F83E3084F83F3084F884
:1053C000403084F8413084F8423084F8433084F827
:1053D000443084F8453084F8463084F8473084F807
:1053E0003D30002010BD80F83C30FFF735FED7E798
:1053F00001207047704770477047000070B586B055
:105400000446016883680269134342691343C26911
:1054100013430868884A024013430B6022685368AC
:1054200023F44053E1680B435360A1692268834B26
:105430009A4201D0236A19439068814B03400B4381
:1054400093602268D36A23F00F03616A0B43D3622F
:1054500022687C4B9A4221D07B4B9A4200F08C8090
:105460007A4B9A4200F0A280794B9A4200F0B580C4
:10547000784B9A4200F0C880774B9A4200F0F48053
:10548000764B9A4200F01981754B9A4200F02C81BC
:105490006A4B9A4200F03F81802333E0714B5B6D91
:1054A00003F03803282B65D8DFE813F029006400E7
:1054B0006400640064006400640064004D016400E2
:1054C0006400640064006400640064002B006400F5
:1054D0006400640064006400640064005E006400B2
:1054E00064006400640064006400640060006400A0
:1054F00064006400640064006400640062000123CE
:1055000000E008234D498A4200F02F81E069B0F5A0
:10551000004F00F0AF81202B00F20782202B00F219
:105520005182DFE813F01E0224024F024F022702CD
:105530004F024F024F022C024F024F024F024F0206
:105540004F024F024F0231024F024F024F024F02F1
:105550004F024F024F024F024F024F024F024F02C3
:105560004F024F024F023D021023CBE72023C9E731
:105570004023C7E78023C5E73A4B5B6D03F0070381
:10558000052B11D8DFE813F00600E10008000A003F
:105590000C000E000023B5E70823B3E71023B1E7A2
:1055A0002023AFE74023ADE78023ABE72D4B5B6DB6
:1055B00003F00703052B0ED8DFE803F003C9050746
:1055C000090B00239EE708239CE710239AE720237A
:1055D00098E7402396E7802394E7224B5B6D03F026
:1055E0000703052B0ED8DFE803F003B40507090B0A
:1055F000002387E7082385E7102383E7202381E73B
:1056000040237FE780237DE7164B5B6D03F00703A4
:10561000052B0ED8DFE803F0039F0507090B0023D5
:1056200070E708236EE710236CE720236AE7402326
:1056300068E7802366E700BFF369FFCF000C0058DE
:10564000FFF4FF11001001400044004000480040FA
:10565000004C004000500040001401400078004021
:10566000007C0040004402587D4B5B6D03F0380322
:10567000282B20D8DFE803F0151F1F1F1F1F1F1F37
:10568000711F1F1F1F1F1F1F171F1F1F1F1F1F1FE0
:10569000191F1F1F1F1F1F1F1B1F1F1F1F1F1F1F24
:1056A0001D0001232EE708232CE710232AE72023DF
:1056B00028E7402326E7802324E7694B5B6D03F04E
:1056C0000703052B0ED8DFE803F0034A0507090B93
:1056D000002317E7082315E7102313E7202311E71A
:1056E00040230FE780230DE75D4B5B6D03F007035D
:1056F000052B0ED8DFE803F003350507090B00235F
:1057000000E70823FEE61023FCE62023FAE6402308
:10571000F8E68023F6E603F50E339B6D03F00703EE
:10572000052B0ED8DFE803F0031F0507090B022342
:10573000E8E60823E6E61023E4E62023E2E6402339
:10574000E0E68023DEE60423DCE60423DAE6042335
:10575000D8E60423D6E60423D4E60423D2E60423C1
:10576000D0E60423CEE60423CCE6202B27D8022B58
:10577000C0F01A81023B1E2B00F21881DFE813F003
:105780005000160156001601160116015B001601A5
:105790001601160116011601160116016000160108
:1057A0001601160116011601160116011601160141
:1057B0001601160116011601160116016C00402B88
:1057C0002CD14FF40040626A264B33F81220B0FB14
:1057D000F2F3656805EB4501994200F2E980B3EB0D
:1057E000053F00F2E780002633463146FAF76CFFAA
:1057F000090241EA106100026B08C0182A463346CC
:1058000041F10001FAF760FFA0F54072164B9A4291
:1058100000F2D2802368D8603046D4E00120D2E084
:10582000FFF754F90028CED10020CCE003A8FFF701
:105830005FF90498F6E76846FFF756FA0198F1E732
:10584000074B1B6813F0200F08D0054B1B68C3F3F0
:10585000C1030648D840E5E70548B4E70348B2E786
:1058600000440258DCDE0008FFFC0F000090D0036B
:1058700000093D00202B15D8202B00F29F80DFE887
:1058800003F031379D9D3A9D9D9D3F9D9D9D9D9D22
:105890009D9D449D9D9D9D9D9D9D9D9D9D9D9D9D91
:1058A0009D9D5000402B1BD1626A4D4B33F8123046
:1058B000B0FBF3F06268530803EB4000B0FBF2F07A
:1058C000A0F110024FF6EF739A4279D883B223F019
:1058D0000F03C0F3420018432368D860002072E031
:1058E000012070E0FEF7B6FA0028DDD100206AE062
:1058F000FEF7C2FAF8E703A8FFF7FAF80498F3E70F
:105900006846FFF7F1F90198EEE7364B1B6813F094
:10591000200F08D0334B1B68C3F3C1033248D84073
:10592000E2E73248C0E73048BEE7402B17D14FF4DA
:105930000040626A2A4B33F81230B0FBF3F0636820
:1059400000EB5300B0FBF3F0A0F110024FF6EF7341
:105950009A4242D8236880B2D860002033E0012008
:1059600031E0FEF777FA0028E3D100202BE0FEF7C4
:1059700083FAF8E703A8FFF7BBF80498F3E7684653
:10598000FFF7B2F90198EEE7164B1B6813F0200FF2
:1059900008D0144B1B68C3F3C1031348D840E2E797
:1059A0001248C6E71048C4E701200CE001200AE0D5
:1059B000012008E0012006E0012004E0012002E0CF
:1059C000012000E001200123A4F86A30A4F8683027
:1059D00000232367636706B070BD0120F3E700BFB3
:1059E000DCDE0008004402580090D00300093D00AE
:1059F000836A13F0010F06D00268536823F4003362
:105A0000C16A0B435360836A13F0020F06D0026829
:105A1000536823F48033016B0B435360836A13F0A4
:105A2000040F06D00268536823F48023416B0B43B4
:105A30005360836A13F0080F06D00268536823F49A
:105A40000043816B0B435360836A13F0100F06D041
:105A50000268936823F48053C16B0B439360836A9D
:105A600013F0200F06D00268936823F40053016CF2
:105A70000B439360836A13F0400F0AD002685368A7
:105A800023F48013416C0B435360436CB3F5801FC8
:105A90000BD0836A13F0800F06D00268536823F49A
:105AA0000023C16C0B43536070470268536823F4B2
:105AB000C003816C0B435360EBE72DE9F8430546C7
:105AC0000F4616469946DDF820802C68E46937EACF
:105AD00004030CBF4FF0010C4FF0000CB44557D13C
:105AE000B8F1FF3FF1D0FCF74BFEA0EB09004045B9
:105AF0002FD8B8F1000F2CD02B681A6812F0040FC1
